:020000040800F2
:10000000D806002089010008D3120008B1120008A8
:10001000D1120008F3020008B31400080000000029
:10002000000000000000000000000000D7120008DF
:10003000F502000800000000D5120008D9120008DF
:10004000A3010008A3010008A3010008A301000800
:10005000A3010008A3010008A3010008A3010008F0
:10006000A3010008A3010008A3010008A3010008E0
:10007000A3010008A3010008A3010008A3010008D0
:10008000A3010008A3010008A3010008A3010008C0
:10009000A3010008A3010008A3010008A3010008B0
:1000A000A3010008A3010008A3010008A3010008A0
:1000B000A3010008A3010008A3010008A301000890
:1000C000A3010008A3010008A3010008A301000880
:1000D000A3010008A3010008A3010008A301000870
:1000E000A3010008A3010008A301000800F002F822
:1000F00000F03AF80AA090E8000C82448344AAF188
:100100000107DA4501D100F02FF8AFF2090EBAE885
:100110000F0013F0010F18BFFB1A43F0010318473B
:10012000EC1600000C170000103A24BF78C878C104
:10013000FAD8520724BF30C830C144BF04680C60ED
:10014000704700000023002400250026103A28BF35
:1001500078C1FBD8520728BF30C148BF0B60704739
:100160001FB51FBD10B510BD00F08AF81146FFF78E
:10017000F7FF01F0E1F900F0A8F803B4FFF7F2FF90
:1001800003BC00F0AFF80000094880470948004769
:10019000FEE7FEE7FEE7FEE7FEE7FEE7FEE7FEE737
:1001A000FEE7FEE704480549054A064B7047000094
:1001B00039130008ED000008D8000020D806002000
:1001C000D8020020D8020020B2F120030AD5C2F1E3
:1001D000200320FA02F001FA03F321FA02F140EAC7
:1001E0000300704721FA03F04FF00001704710B58B
:1001F000431C02E010F8011B71B18107FAD14FF0E6
:10020000013202C88C1A8C4314EAC211F9D0C01A08
:100210000A0603D0C01E10BDC01A10BD0A0401D0CA
:10022000801E10BD0902FCD0401E10BD4FF0000220
:1002300000B5134694469646203922BFA0E80C50DC
:10024000A0E80C50B1F12001BFF4F7AF090728BFB7
:10025000A0E80C5048BF0CC05DF804EB890028BF33
:1002600040F8042B08BF704748BF20F8022B11F05C
:10027000804F18BF00F8012B7047704770477047D8
:10028000754600F02BF8AE4605006946534620F04F
:100290000700854618B020B5FFF784FFBDE8204071
:1002A0004FF000064FF000074FF000084FF0000B32
:1002B00021F00701AC46ACE8C009ACE8C009ACE8E5
:1002C000C009ACE8C0098D46704710B50446AFF3CD
:1002D00000802046BDE81040FFF74FBF0048704740
:1002E0007800002001491820ABBEFEE7260002007E
:1002F0007047FEE77047000006490020C8610648C5
:10030000016941F004010161016941F040010161AD
:10031000704700005800002000200240064A0021DB
:10032000D16106490A6942F002020A61486108691E
:1003300040F0400008617047580000200020024053
:10034000044B0022DA61044A136943F0010313618C
:10035000018070475800002000200240144800220D
:10036000C168CB06134904D5CA6942F00202CA61CA
:100370001022C3685B0705D5CB6943F00103CB614D
:1003800042F00402C369DB0707D0CB6943F00403E2
:10039000CB61C16921F00101C161A2F58071013910
:1003A00001D0C2607047C16921F00101C16170478D
:1003B000002002405800002070B5054600F0B4FA55
:1003C0000646114C09E0681C07D025B100F0ACFAD4
:1003D000801BA84201D9032070BDE068C007F2D19C
:1003E000E068800601D52020E060E068C00605D402
:1003F000E069C00702D1E068400703D5FFF7AEFF10
:10040000012070BD002070BD0020024000B585B005
:100410000121CDE902010020009004A9684600F006
:100420004FF805B000BD00F09FB800F0E7B82DE927
:10043000F041804600260F461446D00702D0012620
:10044000541EA4B2002508E0781908EB05010288C3
:100450000120D30F00F092F8AD1CA542F4D3002E7A
:100460000AD0385D08EB0401BDE8F04140F47F425A
:10047000D317012000F082B8BDE8F081064810B51E
:100480004FF0FF31016100220261C160C26000F0E3
:100490008BFA002010BD00000010024070B5044629
:1004A00000F042FA0546601C02D00448007804447B
:1004B00000F03AFA401BA042FAD370BD00000020C1
:1004C0002DE9F047054626480F460126017E012901
:1004D0000FD00121814601762868DFF888804CF230
:1004E0005034022808D0A2462046FFF765FFA8B185
:1004F00031E00220BDE8F0872046FFF75DFF08BB32
:100500000120FFF7F9FE2046FFF756FFD8F810103C
:10051000064621F00401C8F810101CE04FF0FF302F
:100520003860AC6811E02046FFF7F8FE5046FFF750
:1005300043FFD8F81010060021F00201C8F810108F
:1005400001D03C6007E004F58064D5E9020100EBCE
:100550008120A042E7D8002189F818103046C9E769
:1005600058000020002002400348016941F080014A
:100570000161002070470000002002402DE9F05F7B
:1005800007461C4888460024017E15461E46012960
:1005900009D00121814601764CF2503A5046FFF7CE
:1005A0000BFF18B122E00220BDE8F09F012F02D01E
:1005B000022F00D00427D346DFF83CA022012846B2
:1005C0003146FFF701FE81B208EB4400FFF7B8FEA9
:1005D0005846FFF7F1FEDAF8102022F00102CAF8BF
:1005E000102018B9641CE4B2BC42E7D3002289F899
:1005F0001820D9E7580000200020024006490020BA
:100600000A69120607D5054A4A60054A4A6009691F
:10061000090600D5012070470020024023016745EC
:10062000AB89EFCD2DE9F04300233E4F0F2573E05A
:1006300001229A400A406DD023F00304E619D6F84F
:1006400008809C074FEA147C05FA0CF909EA0804B3
:10065000DFF8D480404502D14FF0000816E0DFF803
:10066000CC80404502D14FF001080FE0DFF8C08098
:10067000404502D14FF0020808E0DFF8B88040455D
:1006800002D14FF0030801E04FF0040808FA0CF81B
:10069000A04522D1284CD4F800C02CEA020CC4F8A2
:1006A00000C0241DD4F800C02CEA020CC4F800C01D
:1006B000214C0C34D4F800C02CEA020CC4F800C061
:1006C000241FD4F800C02CEA020CC4F800C0D6F8ED
:1006D00008C02CEA090CC6F808C0FF2A01D8064653
:1006E00001E000F104064FEA830401D9A4F12004DB
:1006F000D6F800C005FA04F82CEA080C4FF00408FC
:1007000008FA04F84CEA080CC6F800C0C46824EAE9
:100710000204C46003F1010331FA03F288D1BDE899
:10072000F08300000000014000080140000C01407F
:100730000010014000140140000401402DE9F84F71
:10074000DFF8B8910024A9F1040B23460F2709F123
:10075000040AABF1040EC9E00125A5402A40AA42D3
:100760007DD1674ED1F804C0ACEB0608B44532D059
:1007700014DCBCF1030F3AD009DCBCF1000F2AD025
:10078000BCF1010F1CD0BCF1020F31D11DE0BCF156
:10079000110F17D0BCF1120F2AD119E0B8F5881F3C
:1007A00019D006DCB8F5803F15D0B8F5801F1FD1F1
:1007B00011E0B8F5001F0ED0B8F5041F18D10AE0FB
:1007C000CB6815E0CB681B1D12E0CB6808330FE047
:1007D000CB680C330CE08B682BB1012B4FF0080376
:1007E00003D0456104E0042302E0056100E000233A
:1007F000FF2A01D8064601E000F104064FEA84050D
:1008000001D9A5F12005D6F8008007FA05FC28EAF1
:100810000C0803FA05F548EA0508C6F800804D689B
:10082000ED0062D5374DAE6946F00106AE61AD69A7
:1008300024F0030605F001050095334D06EB050C89
:10084000DCF80850A607360F07FA06F825EA08056F
:10085000DFF8B880404503D14FF0000817E044E0CE
:10086000DFF8AC80404502D14FF001080FE0DFF81F
:10087000A480404502D14FF0020808E0DFF89880DC
:10088000404502D14FF0030801E04FF0040808FA98
:1008900006F848EA0508CCF808804D68D9F80060E9
:1008A000ED024D4601D5164300E096432E604D689B
:1008B000DAF80060AD02554601D5164300E09643D4
:1008C0002E604D68DBF80060AD035D4601D5164330
:1008D00000E096432E604D68DEF80060ED0375463B
:1008E00001D5164300E096432E60641C0D682A462D
:1008F000E5407FF431AFBDE8F88F00000804014007
:1009000000001110001002400000014000080140EA
:10091000000C014000100140001401400AB10161C7
:1009200070470904FBE70000014880687047000039
:1009300000000020024881680278114481607047FD
:1009400000000020074810B5016841F01001016067
:10095000032000F069F80F2000F006F800F026F8F8
:10096000002010BD0020024070B50D4D04464FF42C
:100970007A712878B1FBF0F00A490968B1FBF0F010
:1009800000F03EFB48B9102C07D200222146501E31
:1009900000F02AF800206C6070BD012070BD0000DE
:1009A000000000200C000020704700000C4808B533
:1009B000816941F001018161816901F001010091CA
:1009C000C16941F08051C161C06900F08050009060
:1009D0000448416821F0E06141F00071416008BDC8
:1009E0000010024000000140F0B40E4B1B680C46A2
:1009F000C3F30223C3F10705042D00D90425191DF3
:100A0000072901D2002300E0DB1E012606FA05F1CA
:100A1000491E214099409E40761E16403143F0BC4D
:100A200000F048BD0CED00E0064900F00702086840
:100A30004FF6FF03184040EA0220034A10430860C3
:100A4000704700000CED00E00000FA052DE9F047CA
:100A50000F46050061D0434E306800F00700B842F1
:100A600009D2306820F0070038433060306800F069
:100A70000700B84251D128683B4C810712D5400786
:100A800003D5606840F4E06060602878000703D513
:100A9000606840F4605060606068A96820F0F00011
:100AA000084360602878C00728D06868012810D003
:100AB0002168022810D0890700292EDA616821F008
:100AC000030101436160FFF72FFF804641F288393F
:100AD0000DE021688903EFE78901EDE7FFF724FFC7
:100AE000A0EB0801494502D90320BDE8F087606802
:100AF000696800F00C00B0EB810FEFD1306800F0B6
:100B00000700B8420BD9306820F007003843306046
:100B1000306800F00700B84201D00120E5E72878EE
:100B2000400705D56068E96820F4E060084360602C
:100B30002878000706D56068296920F4605040EAEB
:100B4000C100606000F0A6F86168084AC1F30311B3
:100B5000515CC8400649086006480068FFF704FF7A
:100B60000020C2E70020024000100240F4170008F5
:100B70000C000020040000202DE9F041FFF7D4FE16
:100B8000304C0546206840F00100206005E000BFC1
:100B9000FFF7CAFE401B022843D820688007F7D51C
:100BA000206820F0F80040F080002060FFF7BCFED5
:100BB00000250646656041F2883704E0FFF7B4FE81
:100BC000801BB8422DD8606810F00C0FF6D11F4979
:100BD0001D4808601E480068FFF7C6FE10B10120DE
:100BE000BDE8F081FFF7A0FE0646206820F0807087
:100BF000206004E0FFF798FE801B022811D82068CF
:100C00008001F7D46560FFF78FFE0646206820F468
:100C10001020206007E000BFFFF786FE801B6428DD
:100C200001D90320DCE720688003F5D4206820F494
:100C300080202060606A40F080706062A5600020C3
:100C4000CEE700000010024000127A000C000020E5
:100C5000040000200448054900684968044AC1F3BB
:100C60000221515CC84070470C0000200010024077
:100C7000041800080448054900684968044AC1F39B
:100C8000C221515CC84070470C0000200010024097
:100C9000041800080E4A51680E4801F00C03042B9A
:100CA00011D0082B0FD10C48C1F38343C903C05C9A
:100CB0000AD55168084AC1F34041921E515C054A69
:100CC0005043B0FBF1F070470449484370470000BF
:100CD0000010024000127A00E417000800093D00ED
:100CE0002DE9F84F040070D02078C04DC00749D0DE
:100CF0006868C0F38100012807D06868C0F38100EC
:100D0000022809D16868C00306D52868800339D550
:100D100060680028E7D035E06068B0F5803F0BD010
:100D200010B1B0F5A02F11D0286820F480302860D1
:100D3000286820F4802002E0286840F48030286091
:100D4000606890B1FFF7F0FD06460AE0286840F4BD
:100D500080202860F0E700BFFFF7E6FD801B6428D5
:100D600073D828688003F7D50CE0FFF7DDFD064651
:100D700005E000BFFFF7D8FD801B6428F0D8286885
:100D80008003F7D420789A4E80074FF001094FF086
:100D9000000839D5686810F00C0F07D06868C0F3F8
:100DA0008100022809D16868C00306D4286880073A
:100DB00014D52069012808D110E02069B0B1C6F827
:100DC0000090FFF7B1FD074605E00AE1FFF7ACFD33
:100DD000C01B0228C4D828688007F7D52868616935
:100DE00020F0F80040EAC10028600DE0C6F800805D
:100DF000FFF79AFD074604E0FFF796FDC01B0228A7
:100E000023D828688007F7D4207800072CD57948A4
:100E1000A169D9B1C0F80090FFF786FD074604E04C
:100E2000FFF782FDC01B02280FD8686A8007F7D53C
:100E300071484FF4FA510068B0FBF1F0009000BF28
:100E40000098411E0091FAD20EE080E0C0F80080C8
:100E5000FFF76AFD074604E0FFF766FDC01B0228A6
:100E600075D8686A8007F7D42078400760D5E869AC
:100E70000027C00008D4E86940F08050E861E869C4
:100E8000012700F0805000905C480168C90513D428
:100E90000168834641F480710160FFF745FD824699
:100EA00006E000BFFFF740FDA0EB0A0064284ED823
:100EB000DBF80000C005F5D5E06801280AD008B1CC
:100EC000052813D0286A20F001002862286A20F043
:100ED000040002E0286A40F001002862E06841F264
:100EE000883B98B1FFF720FD82460BE0286A40F06E
:100EF00004002862EEE700BFFFF716FDA0EB0A0131
:100F000059455AD8286A8007F6D50CE0FFF70CFD42
:100F1000824605E0FFF708FDA0EB0A0159454CD8D1
:100F2000286A8007F6D41FB1E86920F08050E86194
:100F3000E06988B36968C1F38101022944D00228BD
:100F4000C6F8608004D0FFF7EFFC044638E034E0D8
:100F5000FFF7EAFC074604E0FFF7E6FCC01B0228A7
:100F60002BD828688001F7D4206AB0F5803F05D1DE
:100F70006868A16820F4003008436860D4E908017B
:100F80000843696821F4741108436860C6F86090EA
:100F9000FFF7CAFC044606E025E000BFFFF7C4FCEB
:100FA000001B022809D828688001F7D51BE000BF84
:100FB000FFF7BAFC001B022802D90320BDE8F88F16
:100FC00028688001F4D40EE00128F7D06868226A0E
:100FD00000F48031914204D1616A00F470108842BB
:100FE00001D00120EAE70020E8E7000000100240FD
:100FF00000004242800442420C0000200070004089
:1010000010B5401EB0F1807F01D3012010BD4FF01C
:10101000E02460610F21601700F04CFA0020A0610D
:1010200007202061002010BD10B5040015D0242039
:1010300084F841002068C16821F40051C160204655
:1010400000F040F80020606484F8410084F8420019
:1010500044F8300F6060207410BD012010BD70B5E1
:10106000040004D094F84100002510B106E00120EE
:1010700070BD84F84050204600F03AF8242084F8EF
:1010800041002068C16821F40051C160204600F091
:101090007BF92068016921F4904101612068416970
:1010A00021F02A0141612068C16841F40051C1600A
:1010B0006564202084F8410084F8420065630020C4
:1010C00070BD000000680749884209D1064881695F
:1010D00021F4804181614FF4C0610448FFF7A2BA56
:1010E0007047000000380140001002400008014035
:1010F00030B585B0002400940194029403940068F4
:101100001449884224D11448816941F480418161A5
:10111000816901F480410491816941F00401816198
:1011200080690E4D00F0040004904FF400700090B0
:10113000022001900320039069462846FFF7FEFA3B
:101140002815CDE90004694628460294FFF7F6FA0F
:1011500005B030BD003801400010024000080140D9
:101160002DE9F84F044690F842009A4616460D467F
:10117000202802D00220BDE8F88FB5B1AEB1002022
:101180006064222184F842102063FFF7CDFBA6851E
:101190008146E685A0684FF480582027404501D15C
:1011A000206920B12E46002529E00120E3E7002632
:1011B00025E04B46002220212046CDF800A000F07B
:1011C0003FF918B184F842700320D4E726B1A06833
:1011D00040451AD038B108E020684068C0F30800E4
:1011E00025F8020B08E0206978B12068406800F01B
:1011F0007F0000BF06F8010BE08D401EE085E08D0A
:101200000028D6D184F84270B5E720684068F1E73D
:101210002DE9F843044690F84100984616460D46DD
:10122000202802D00220BDE8F88385B17EB10020DD
:101230006064212084F84100FFF776FBA684814694
:10124000E684A0682027B0F5805F02D003E001208B
:10125000E9E7206910B12E4600250EE000260CE0DB
:101260008021204600F0ECF8A8B9C6B116F8010BB1
:1012700021684860E08C401EE084E08C4B464FF0D3
:101280000002CDF800800028EAD14FF0400120464E
:1012900000F0D6F840B184F841700320C3E735F878
:1012A000020BC0F30800E3E784F841700020BAE7BE
:1012B000FEE7000005480168001D0068491C03D0D6
:1012C000401C01D0012070470020704700C8000872
:1012D000FEE7FEE770477047FFF72CBB30B58FB0D5
:1012E00028216846FEF7A2FF14210AA8FEF79EFFF8
:1012F00002250120049000951020059000244FF451
:101300006010CDE9084007956846FFF7E9FC08B191
:1013100072B6FEE70F20CDE90A054FF48060CDE9F3
:101320000C4002210AA80E94FFF790FB002801D080
:1013300072B6FEE70FB030BD704701680C3151E85E
:10134000002F22F4907241E80023002BF5D10168B0
:10135000143151E8002F22F0010241E80023002B54
:10136000F5D1016B012909D101680C3151E8002F39
:1013700022F0100241E80023002BF5D1202180F853
:10138000421000210163704770B50446006801698E
:10139000E26821F44051114301612169A0680843CA
:1013A000616908432168CA6841F20C639A430243A9
:1013B000CA6020684169A26921F44071114341610A
:1013C0001E492068884202D1FFF754FC01E0FFF774
:1013D00041FC00EBC00101EB001260686421800059
:1013E000B2FBF0F3B3FBF1F36FF018067343B2FBFB
:1013F000F0F5B2FBF0F605EB8305322303EB0515A0
:10140000B5FBF1F5B6FBF1F605F0F00505EB0615B9
:10141000B2FBF0F6B2FBF0F0B0FBF1F06FF01802A7
:10142000504306EB800003EB0010B0FBF1F02168A5
:1014300000F00F002844886070BD000000380140B3
:101440002DE9F843984617460D460446089E24E0C9
:10145000701C22D0FFF768FAA0EB0800B0421AD83F
:10146000CEB12068C168490717D5802D15D0402D11
:1014700013D00168C94309070FD4016800254068EB
:1014800000902046FFF759FF0820606484F8405020
:101490000120BDE8F8830320FBE72068006835EAF7
:1014A000000004D00020B842D2D00020F1E7012093
:1014B000F9E7FEE70907090E002804DB00F1E02048
:1014C00080F80014704700F00F0000F1E02080F871
:1014D000141D704770B5154E3468301D056872B61E
:1014E00000204FF0E021086148618861421E8100C0
:1014F00001F1E021C1F88021C1F88022401C0828B8
:10150000F5D30B48FFF790FDFFF736FBFEF7B6FF6C
:1015100008480660BFF34F8FBFF36F8F84F30888CE
:1015200062B6AC46BDE870406047000000C80008E5
:101530001000002008ED00E0D2B0FFF703FAFFF73B
:10154000CDFE00248A48409441944294439481699A
:1015500041F0040181618069864D00F004004490EF
:10156000224601212846FFF7D9F901204090CDE914
:1015700041040220439040A92846FFF7DFF87F4846
:101580007D4901604FF4E131C0E901140C21C460D0
:10159000C0E904418461C461FFF761FD08B172B61E
:1015A000FEE7012211467348FFF7B8F9FFF7BCF9CF
:1015B00073A2054607CA4BAB41F2883B83E807009C
:1015C0005C464FF4FA760CE064230A224BA96B4880
:1015D000FFF71EFE334608224EA96848FFF7C0FDFC
:1015E00048B1FFF7A1F9401BA042EDD3FFF762FE1F
:1015F00008B1FFF76FFF4EA800F0EEF805464FA8C0
:1016000000F0EAF880464FF47A7A15B1B5F59C3FC0
:1016100016D95EA00DF5807C0FC88CE80F005346EC
:101620000D2240A95548FFF7F3FDFFF743FE08B12F
:10163000FFF750FF012211464E48FFF76FF9FEE712
:10164000FEF7F3FEDFF8549105F2FF30870A4C46AF
:10165000002605E02046FEF7D9FE04F58064761CDE
:10166000BE42F7D3FEF7DFFE4DA14FF47A73D1E906
:101670000001CDE94901072249A94048FFF7C8FD0B
:1016800000273E46FEF7D1FE4FF4807A2BE0544609
:10169000A54200D8ACB25B46224669463748FFF700
:1016A0005FFD70B140A00DF5827C07C88CE8070093
:1016B0004FF47A73082241A93048FFF7A9FD0126AB
:1016C00013E0224669464846FEF7B1FE00216A460D
:1016D000084602E0135C401C19442346A042F9D39B
:1016E0000F44A144ED1A002DD1D1FEF79CFE2E43EC
:1016F00017D030A1C823D1E90001CDE9400107226C
:1017000040A91E48FFF784FDBFF34F8F2B480168A7
:101710002B4A01F4E06111430160BFF34F8F00BF1A
:10172000FDE747450FD127A42046FEF760FD82B2B2
:10173000642321461148FFF76BFD3220FEF7AEFE11
:10174000FFF7C8FEFEE721A42046FEF750FD82B257
:10175000642321460948FFF75BFDFFF7ABFD08B1A5
:10176000FFF7B8FE012211460248FFF7D7F8FEE75F
:101770000010024000080140003801401000002025
:10178000424C5F52454144590D0A000046575F5391
:10179000495A455F4552520D0A00000000C8000832
:1017A00052454144590D0A0052585F4552520D0AA4
:1017B0000000000041424F52540D0A000CED00E0C1
:1017C0000400FA0546575F4F4B0D0A004352435F32
:1017D0004641494C0D0A0000C178006861F31F6062
:1017E0007047010202030405060708090A0B0C0DE5
:1017F0000E0F1010000000000000000001020304A2
:101800000607080900000000010203042C18000864
:101810000000002010000000280100083C1800080B
:1018200010000020C806000044010008010000006C
:0C183000100000000000000000127A0010
:04000005080000ED02
:00000001FF
